{
  "contractName": "SimpleBank",
  "abi": [
    {
      "constant": true,
      "inputs": [
        {
          "name": "",
          "type": "address"
        }
      ],
      "name": "enrolled",
      "outputs": [
        {
          "name": "",
          "type": "bool"
        }
      ],
      "payable": false,
      "stateMutability": "view",
      "type": "function"
    },
    {
      "constant": true,
      "inputs": [],
      "name": "owner",
      "outputs": [
        {
          "name": "",
          "type": "address"
        }
      ],
      "payable": false,
      "stateMutability": "view",
      "type": "function"
    },
    {
      "inputs": [],
      "payable": false,
      "stateMutability": "nonpayable",
      "type": "constructor"
    },
    {
      "payable": false,
      "stateMutability": "nonpayable",
      "type": "fallback"
    },
    {
      "anonymous": false,
      "inputs": [
        {
          "indexed": false,
          "name": "accountAddress",
          "type": "address"
        }
      ],
      "name": "LogEnrolled",
      "type": "event"
    },
    {
      "anonymous": false,
      "inputs": [
        {
          "indexed": false,
          "name": "accountAddress",
          "type": "address"
        },
        {
          "indexed": false,
          "name": "amount",
          "type": "uint256"
        }
      ],
      "name": "LogDepositMade",
      "type": "event"
    },
    {
      "anonymous": false,
      "inputs": [
        {
          "indexed": false,
          "name": "accountAddress",
          "type": "address"
        },
        {
          "indexed": false,
          "name": "withdrawAmount",
          "type": "uint256"
        },
        {
          "indexed": false,
          "name": "newBalance",
          "type": "uint256"
        }
      ],
      "name": "LogWithdrawal",
      "type": "event"
    },
    {
      "constant": false,
      "inputs": [
        {
          "name": "customer",
          "type": "address"
        }
      ],
      "name": "enroll",
      "outputs": [
        {
          "name": "",
          "type": "bool"
        }
      ],
      "payable": false,
      "stateMutability": "nonpayable",
      "type": "function"
    },
    {
      "constant": false,
      "inputs": [
        {
          "name": "user",
          "type": "address"
        }
      ],
      "name": "deposit",
      "outputs": [
        {
          "name": "",
          "type": "uint256"
        }
      ],
      "payable": true,
      "stateMutability": "payable",
      "type": "function"
    },
    {
      "constant": false,
      "inputs": [
        {
          "name": "withdrawAmount",
          "type": "uint256"
        },
        {
          "name": "user",
          "type": "address"
        }
      ],
      "name": "withdraw",
      "outputs": [
        {
          "name": "",
          "type": "uint256"
        }
      ],
      "payable": true,
      "stateMutability": "payable",
      "type": "function"
    },
    {
      "constant": true,
      "inputs": [],
      "name": "balance",
      "outputs": [
        {
          "name": "",
          "type": "uint256"
        }
      ],
      "payable": false,
      "stateMutability": "view",
      "type": "function"
    }
  ],
  "bytecode": "0x608060405234801561001057600080fd5b5033600260006101000a81548173ffffffffffffffffffffffffffffffffffffffff021916908373ffffffffffffffffffffffffffffffffffffffff160217905550610605806100616000396000f300608060405260043610610077576000357c0100000000000000000000000000000000000000000000000000000000900463ffffffff168062f714ce1461008957806310eb0e0e146100dd5780638da5cb5b14610138578063b69ef8a81461018f578063ba83d1a0146101ba578063f340fa0114610215575b34801561008357600080fd5b50600080fd5b6100c760048036038101908080359060200190929190803573ffffffffffffffffffffffffffffffffffffffff16906020019092919050505061025f565b6040518082815260200191505060405180910390f35b3480156100e957600080fd5b5061011e600480360381019080803573ffffffffffffffffffffffffffffffffffffffff16906020019092919050505061038d565b604051808215151515815260200191505060405180910390f35b34801561014457600080fd5b5061014d6103ad565b604051808273ffffffffffffffffffffffffffffffffffffffff1673ffffffffffffffffffffffffffffffffffffffff16815260200191505060405180910390f35b34801561019b57600080fd5b506101a46103d3565b6040518082815260200191505060405180910390f35b3480156101c657600080fd5b506101fb600480360381019080803573ffffffffffffffffffffffffffffffffffffffff169060200190929190505050610419565b604051808215151515815260200191505060405180910390f35b610249600480360381019080803573ffffffffffffffffffffffffffffffffffffffff1690602001909291905050506104da565b6040518082815260200191505060405180910390f35b6000826000808473ffffffffffffffffffffffffffffffffffffffff1673ffffffffffffffffffffffffffffffffffffffff1681526020019081526020016000205410151561034057826000808473ffffffffffffffffffffffffffffffffffffffff1673ffffffffffffffffffffffffffffffffffffffff168152602001908152602001600020600082825403925050819055508173ffffffffffffffffffffffffffffffffffffffff166108fc849081150290604051600060405180830381858888f1935050505015801561033a573d6000803e3d6000fd5b50610386565b6000808373ffffffffffffffffffffffffffffffffffffffff1673ffffffffffffffffffffffffffffffffffffffff168152602001908152602001600020549050610387565b5b92915050565b60016020528060005260406000206000915054906101000a900460ff1681565b600260009054906101000a900473ffffffffffffffffffffffffffffffffffffffff1681565b60008060003373ffffffffffffffffffffffffffffffffffffffff1673ffffffffffffffffffffffffffffffffffffffff16815260200190815260200160002054905090565b600060018060008473ffffffffffffffffffffffffffffffffffffffff1673ffffffffffffffffffffffffffffffffffffffff16815260200190815260200160002060006101000a81548160ff0219169083151502179055507f990c442e6adb818b8fa7db3cf1023decd07f7b66e5306928c7ed527d974192bb82604051808273ffffffffffffffffffffffffffffffffffffffff1673ffffffffffffffffffffffffffffffffffffffff16815260200191505060405180910390a1919050565b6000346000808473ffffffffffffffffffffffffffffffffffffffff1673ffffffffffffffffffffffffffffffffffffffff168152602001908152602001600020600082825401925050819055507fa8126f7572bb1fdeae5b5aa9ec126438b91f658a07873f009d041ae690f3a1938234604051808373ffffffffffffffffffffffffffffffffffffffff1673ffffffffffffffffffffffffffffffffffffffff1681526020018281526020019250505060405180910390a16000808373ffffffffffffffffffffffffffffffffffffffff1673ffffffffffffffffffffffffffffffffffffffff1681526020019081526020016000205490509190505600a165627a7a72305820ccfdb196db0464b4963824d005703ab88da5cd5c44fc093c0764eea5627c84290029",
  "source": "pragma solidity ^0.4.13;\ncontract SimpleBank {\n\n    mapping (address => uint) private balances;\n    mapping (address => bool) public enrolled;\n    address public owner;\n\n    event LogEnrolled(address accountAddress);\n    event LogDepositMade(address accountAddress, uint amount);\n    event LogWithdrawal(address accountAddress, uint withdrawAmount, uint newBalance);\n\n    constructor() {\n        owner = msg.sender;\n    }\n\n    function enroll(address customer) public returns (bool){\n        enrolled[customer] = true;\n        emit LogEnrolled(customer);\n    }\n\n    function deposit(address user) public payable returns (uint) {\n        balances[user] += msg.value;\n        emit LogDepositMade(user, msg.value);\n        return balances[user];\n    }\n\n    function withdraw(uint withdrawAmount, address user) public payable returns (uint) {\n        if(balances[user] >= withdrawAmount) { \n            balances[user] -= withdrawAmount;\n            user.transfer(withdrawAmount);\n        } else {\n            return balances[user];\n        }\n    }\n\n    function balance() public view returns (uint) {\n        return balances[msg.sender];\n    }\n\n    function() {\n        revert();\n    }\n}\n",
  "sourcePath": "C:\\Users\\Veronica Coutts\\Desktop\\Desktop\\Work\\Web3 Projects\\SimpleBank\\simple_bank\\contracts\\SimpleBank.sol",
  "compiler": {
    "name": "solc",
    "version": "0.4.24+commit.e67f0147.Emscripten.clang"
  },
  "schemaVersion": "2.0.1",
  "updatedAt": "2018-08-14T18:33:45.293Z"
}